S027000053797374656D5F7375727665696C6C616E63655F6E69766561755F646561752E7372656327
S11300000C9434000C9451000C9451000C94510045
S11300100C9451000C9451000C9451000C94510018
S11300200C9451000C9451000C94AA000C940203FB
S11300300C9451000C9451000C9451000C945100F8
S11300400C9451000C9451000C9451000C945100E8
S11300500C9451000C9451000C9451000C945100D8
S11300600C9451000C94510011241FBECFEFD8E022
S1130070DEBFCDBF11E0A0E0B1E0E4E5FEE102C0E7
S113008005900D92A831B107D9F725E0A8E1B1E0B8
S113009001C01D92A738B207E1F70E94A50D0C9488
S11300A0280F0C94000087B18E6087B987B18160F6
S11300B087B90895813051F018F08230F9F008952D
S11300C082E088B988B18E7F88B9089584E088B9C0
S11300D00E9419092091180130911901821B930B78
S11300E0853F914080F098B181E0892788B90E94CA
S11300F019099093190180931801089588E088B92B
S113010088B1816088B90895E0EBF0E0808183686C
S11301108083E1EBF0E08081876080830895882309
S113012021F08FE18093B300089580E18093B300C0
S11301300895E1E8F0E08081826C8083EFE6F0E0EE
S11301408081806280838AB184608AB98AB18F7B1E
S11301508AB908951F920F920FB60F9211248F93AC
S11301609F93AF93BF93EF93FF938091810086FF9A
S113017014C08091860090918700A0E0B0E0809345
S11301801F0190932001A0932101B0932201E1E883
S1130190F0E080818F7B808316C0809186009091EF
S11301A08700A0E0B0E080931B0190931C01A09312
S11301B01D01B0931E0181E080931A01E1E8F0E093
S11301C0808180648083FF91EF91BF91AF919F9173
S11301D08F910F900FBE0F901F9018950F931F9340
S11301E0CF93DF9300D0CDB7DEB78BB184608BB9EA
S11301F085E38A95F1F700008BB18B7F8BB90E9460
S113020019099A83898306C061E070E0CE010196E2
S11302100E94160B80911A018823B1F380911B016F
S113022090911C01A0911D01B0911E0100911F012C
S1130230109120012091210130912201BC01CD01B6
S1130240601B710B820B930B10921A010E94E00D3C
S113025026E933E44BE05DE30E94220E20E030E027
S113026040E05FE30E94220E0F900F90DF91CF9148
S11302701F910F910895FC010396928381832FEFC0
S11302803FEF34832383968385839087878310820B
S11302900895FC01118610860895CF93DF93EB0136
S11302A0488159814F3F2FEF520721F4FC01A78168
S11302B0B0850DC0DC01139601C0DF011296ED91EB
S11302C0FC9113972081318142175307B0F712969E
S11302D0ED91FC911397FB83EA83D583C483BD839B
S11302E0AC831396DC93CE93129799878887FC018D
S11302F020812F5F2083DF91CF910895CF93DF93E7
S1130300FC01A085B185C281D381848195819D83BF
S11303108C83C481D581828193819B838A83119646
S11303208D919C911297E817F90731F48481958196
S113033012969C938E931197118610868C918150FE
S11303408C93DF91CF9108951092890089EF809367
S113035088008BE080938100EFE6F0E0808180618B
S11303608083089531E1FC013083319722E22083B8
S11303703197A3E3A08331976083319770833197DA
S11303801082319760E8608331971082319762E080
S11303906083319763E06083319764E060833197D1
S11303A065E06083319766E06083319767E060833E
S11303B0319768E06083319769E06083319760E149
S11303C0608331973083319732E13083319733E161
S11303D03083319734E13083319735E1308331977D
S11303E036E13083319737E13083319738E1308318
S11303F0319739E13083319730E23083319731E2FC
S1130400308331972083319723E2208331974083CF
S113041031975083319726E22083319727E2208356
S1130420319728E22083319729E22083319720E312
S11304302083319721E32083869708950E94A401A5
S1130440A0918305B0918405CD91CDBFDD91DEBF30
S1130450FF91EF91DF91CF91BF91AF919F918F91D8
S11304607F916F915F914F913F912F911F910F91C8
S1130470FF90EF90DF90CF90BF90AF909F908F90C0
S11304807F906F905F904F903F902F901F900F90B0
S11304900FBE0F90089581E008950F920FB6F8945F
S11304A00F921F9211242F923F924F925F926F925C
S11304B07F928F929F92AF92BF92CF92DF92EF92F0
S11304C0FF920F931F932F933F934F935F936F93D9
S11304D07F938F939F93AF93BF93CF93DF93EF93C8
S11304E0FF93A0918305B09184050DB60D920EB6CD
S11304F00D920E946E0BA0918305B0918405CD915D
S1130500CDBFDD91DEBFFF91EF91DF91CF91BF9120
S1130510AF919F918F917F916F915F914F913F9197
S11305202F911F910F91FF90EF90DF90CF90BF908C
S1130530AF909F908F907F906F905F904F903F907F
S11305402F901F900F900FBE0F9008950F920FB62B
S1130550F8940F921F9211242F923F924F925F9220
S11305606F927F928F929F92AF92BF92CF92DF92BF
S1130570EF92FF920F931F932F933F934F935F93A9
S11305806F937F938F939F93AF93BF93CF93DF9397
S1130590EF93FF93A0918305B09184050DB60D925E
S11305A00EB60D920E94230981110E946E0BA09138
S11305B08305B0918405CD91CDBFDD91DEBFFF9160
S11305C0EF91DF91CF91BF91AF919F918F917F91E7
S11305D06F915F914F913F912F911F910F91FF90D8
S11305E0EF90DF90CF90BF90AF909F908F907F90CF
S11305F06F905F904F903F902F901F900F900FBE81
S11306000F9008950E94A6021895A1E3B1E0EDE2CF
S1130610F1E0B183A08313821282EDE2F5E0F0935E
S11306202C01E0932B0113821282118210828CEF31
S113063093E013969C938E931297ED93FC9390936F
S113064028018093270190932A018093290108951A
S1130650CF93DF93EC01ADE2B1E001C0DF01ED9196
S1130660FC911197EC17FD07C8F312968D919C919C
S113067013979D01280F391FC217D30749F42A8104
S11306803B81820F931F13969C938E931297ED01D7
S11306908A819B819E01280F391FE217F307C1F459
S11306A020912B0130912C01E217F30771F0228184
S11306B03381820F931F9B838A83ED91FC91119761
S11306C0808191819983888305C03983288302C0FE
S11306D0F983E883CA17DB0711F0CD93DC93DF912C
S11306E0CF9108950F931F93CF93DF93EC01892B40
S11306F041F0CC3F8FEFD80710F4249602C0C0E03D
S1130700D0E00E94130980912B0190912C01892B38
S113071011F40E940503DD230CF46CC0209709F446
S11307206CC02091290130912A012C173D0708F44F
S113073067C0E0912D01F0912E016DE271E002C0DD
S1130740BF01FC01828193818C179D0720F4808175
S113075091810097A9F780912B0190912C01E817C2
S1130760F90709F450C0DB010D911C9111970C5F3E
S11307701F4F808191818D939C93828193818C1BE7
S11307809D0B8930910598F0AF014C0F5D1FDA0184
S113079013969C938E931297D383C283DB018D911E
S11307A09C91DA018D939C93DB014D935C93428180
S11307B05381C901841B950B90932A0180932901CD
S11307C020912701309128018217930720F49093F8
S11307D02801809327015068538342831182108239
S11307E08091250190912601019690932601809392
S11307F025010BC000E010E008C000E010E005C0D7
S113080000E010E002C000E010E00E943D0A011583
S1130810110511F40E94DD0DC801DF91CF911F91E4
S11308200F9108950F931F93CF93DF93009749F18E
S1130830EC0124972A813B8133231CF5488159819B
S1130840452BF9F43F773B832A830E9413098A815D
S11308509B812091290130912A01820F931F90934B
S11308602A0180932901CE010E942803809123014B
S113087090912401019690932401809323010E9476
S11308803D0ADF91CF911F910F9108950FB6F8940F
S11308900F92FC01828D811102C081E001C080E0D1
S11308A00F900FBE08950FB6F8940F92FC01228D9D
S11308B0838D281302C081E001C080E00F900FBE39
S11308C008950F931F93CF93DF93EC01042F1A8D98
S11308D04C8D4423B9F1011116C050E08A819B81EB
S11308E00E94180F2C8D8A819B81820F911D9B83FE
S11308F08A832C813D818217930720F18881998115
S11309009B838A831FC050E08E819F810E94180FB1
S11309108C8D90E09195819591092E813F81280FCE
S1130920391F3F832E83488159812417350730F4BA
S11309302C813D81820F931F9F838E83023011F49B
S1130940111111501F5F1A8F80E0DF91CF911F9119
S11309500F910895FC01448D4423A9F050E02681B1
S11309603781240F351F3783268384819581281787
S1130970390720F08081918197838683CB0166813A
S113098077810E94180F08951F93CF93DF93EC0192
S11309900FB6F8940F921E8D0BC08989882351F0ED
S11309A0CE0141960E94190C81110E94130D115021
S11309B011169CF38FEF8E8F0F900FBE0FB6F89425
S11309C00F921D8D0BC08885882351F0CE010896A7
S11309D00E94190C81110E94130D115011169CF3E1
S11309E08FEF8D8F0F900FBEDF91CF911F910895E0
S11309F00F931F93CF93DF93FC01362F892B09F4B8
S1130A004DC0238D222309F44BC0022F10E08FEF39
S1130A109FEFB8010E94040F448D842F90E0681763
S1130A20790708F43FC0EF010FB6F8940F92608184
S1130A307181FB01249FE00DF11D1124FD83EC83E2
S1130A401A8E7B836A8301501109809FA001819FC4
S1130A50500D909F500D1124CB01840F951F9F833F
S1130A608E838FEF8D8F8E8F31110CC088858823F4
S1130A7089F0CE0108960E94190C882359F00E942F
S1130A804D0208C0CE0108960E943B01CE0141965A
S1130A900E943B010F900FBE81E005C080E003C0BF
S1130AA080E001C080E0DF91CF911F910F91089504
S1130AB00F931F93F801611103C01183008302C0D7
S1130AC051834083838F648F61E0CF010E94F804D7
S1130AD01F910F910895DF92EF92FF920F931F934E
S1130AE0CF93DF93382FE62F882329F1E82EF12CBA
S1130AF08FEF9FEFB7010E94040FAE2FB0E06A178B
S1130B007B07E0F03E9FC0011124813E9105CCF4A7
S1130B10D42EDE2FC32F4F960E9472037C010097C0
S1130B2091F08C012D2DAC01415E5F4F6D2F8C2F08
S1130B300E94580508C0E12CF12C05C0E12CF12CD1
S1130B4002C0E12CF12CC701DF91CF911F910F91CD
S1130B50FF90EF90DF900895CF92DF92EF92FF9293
S1130B600F931F93CF93DF9300D000D01F92CDB784
S1130B70DEB78C017B015D834C83C22ED12C0FB672
S1130B80F8940F92F801928D838D981718F0F2E083
S1130B90CF1219C04C2DB701C8010E946104F8019D
S1130BA09189992349F0C80141960E94190C882320
S1130BB031F00E944D0203C081110E944D020F903A
S1130BC00FBE81E04DC08C819D81892B21F40F9053
S1130BD00FBE80E045C0D11006C0CE0101960E9430
S1130BE0D60CDD24D3940F900FBE0E9413090FB6C8
S1130BF0F8940F92F801858D8F3F09F4158EF80152
S1130C00868D8F3F09F4168E0F900FBEBE016C5F68
S1130C107F4FCE0101960E94E10C81111BC0C801D7
S1130C200E945304882381F06C817D81C801089659
S1130C300E94070CC8010E94C4040E943D0A81114D
S1130C409ECF0E944D029BCFC8010E94C4040E9403
S1130C503D0A95CFC8010E94C4040E943D0A80E069
S1130C600F900F900F900F900F90DF91CF911F91E5
S1130C700F91FF90EF90DF90CF900895CF92DF9285
S1130C80EF92FF920F931F93CF93DF9300D000D086
S1130C901F92CDB7DEB78C016B015D834C83E12CD1
S1130CA00FB6F8940F92F801F28CFF20A9F0B60168
S1130CB0C8010E94AA04FA94F801F28E8085882360
S1130CC039F0C80108960E94190C81110E944D0246
S1130CD00F900FBE81E053C08C819D81892B21F43C
S1130CE00F900FBE80E04BC0E11006C0CE0101960C
S1130CF00E94D60CEE24E3940F900FBE0E941309B9
S1130D000FB6F8940F92F801858D8F3F09F4158E74
S1130D10F801868D8F3F09F4168E0F900FBEBE0129
S1130D206C5F7F4FCE0101960E94E10C81111BC0C4
S1130D30C8010E944604882381F06C817D81C8012A
S1130D4041960E94070CC8010E94C4040E943D0AF7
S1130D508111A6CF0E944D02A3CFC8010E94C404F2
S1130D600E943D0A9DCFC8010E94C4040E943D0A0E
S1130D70C8010E944604882309F492CF80E00F90B2
S1130D800F900F900F900F90DF91CF911F910F91C3
S1130D90FF90EF90DF90CF900895E0914B05F09194
S1130DA04C058081811107C08FEF9FEF909335052B
S1130DB0809334050895E0914B05F0914C0505802E
S1130DC0F681E02D808191819093350580933405DF
S1130DD008956F927F928F929F92AF92BF92CF921B
S1130DE0DF92EF92FF920F93CF93DF933C015B016D
S1130DF04901E601C42ED12CA60165EA70E08F8971
S1130E00988D0E94210F4F89588D81E0C81AD1080E
S1130E10C40ED51EA114B10489F414C0822F90E02D
S1130E20F501E80FF91F3081DE01A80FB91F5996AB
S1130E303C938081882329F02F5F01C020E02C306F
S1130E4068F31CA2043008F003E00E8BCE01029676
S1130E500E944901CE010C960E944901D987C88796
S1130E6084E090E0801B91099D878C87DB8BCA8B83
S1130E70A401B301C6010E94B20199838883E114DD
S1130E80F10419F0F701D183C083DF91CF910F9161
S1130E90FF90EF90DF90CF90BF90AF909F908F9096
S1130EA07F906F9008954F925F926F927F928F928E
S1130EB09F92AF92BF92CF92DF92EF92FF920F93E5
S1130EC01F93CF93DF932C014B01142F3901842FEF
S1130ED090E00E9472036C01892B99F08AE290E001
S1130EE00E947203EC01892B41F08AE2FE01119207
S1130EF08A95E9F7D88ECF8A06C0C6010E941204EB
S1130F0002C0C0E0D0E0209749F0A12CB12C6E01C2
S1130F109301412FB401C2010E94E906CE01DF9181
S1130F20CF911F910F91FF90EF90DF90CF90BF90E2
S1130F30AF909F908F907F906F905F904F900895A7
S1130F4080915F058230E0F30E944D02F9CFCF9388
S1130F50C0E010C08C2F90E09C01220F331F220FA1
S1130F60331F220F331F820F931F815A9A4F0E94FF
S1130F703B01CF5FC43070F386E595E00E943B01EE
S1130F808DE495E00E943B0180E495E00E943B01E2
S1130F9086E595E090934C0580934B058DE495E0B0
S1130FA090934A0580934905CF910895CF93DF9399
S1130FB0EC010FB6F8940F9280913F058F5F8093F8
S1130FC03F058091830590918405892B59F4D09332
S1130FD08405C093830580913F05813099F40E9474
S1130FE0A70710C080913B0581110CC0E0918305D7
S1130FF0F091840596898E89891720F0D093840511
S1131000C0938305809136058F5F809336058E8962
S113101090913C05981710F480933C0590E0FC01F6
S1131020EE0FFF1FEE0FFF1FEE0FFF1F8E0F9F1F10
S1131030FC01E15AFA4F0180F281E02DFD83EC833B
S1131040848195819F838E83A481B581CE0102968C
S113105013969C938E93129795838483EE89F0E084
S1131060CF01880F991F880F991F880F991FE80FC8
S1131070F91FE15AFA4FFB87EA8780818F5F8083EB
S11310800F900FBE80913B05882351F0E0918305BA
S1131090F091840596898E89981710F40E944D0268
S11310A0DF91CF910895CF92DF92EF92FF920F9349
S11310B01F93CF93DF93EC0100913D0510913E0502
S11310C0E0904B05F0904C05C0904905D0904A053E
S11310D0809183059091840502960E947E01C00F41
S11310E0D11FE0918305F0918405D383C283C01797
S11310F0D10750F460918305709184056E5F7F4F32
S1131100C6010E944D0114C060918305709184054D
S11311106E5F7F4FC7010E944D018091340590910D
S11311203505C817D90720F4D0933505C093340585
S1131130DF91CF911F910F91FF90EF90DF90CF90AF
S11311400895EF92FF920F930E945307009721F0A6
S11311500E94D60781E001C08FEF0F91FF90EF90BE
S11311600895EF92FF920F931F93CF93DF93CDB720
S1131170DEB72C970FB6F894DEBF0FBECDBF20E0CC
S113118012C0822F022E000C990BFC01EF5FFE4F60
S11311903081E1E0F0E0EC0FFD1FE80FF91F308330
S11311A0332319F02F5F2C3064F310E081E015C075
S11311B0812F880F990B9C012E5C3A4F790100E036
S11311C020E030E040E8BE016F5F7F4F80EA97E0A7
S11311D00E94A108882319F01F5F11164CF72C9662
S11311E00FB6F894DEBF0FBECDBFDF91CF911F9134
S11311F00F91FF90EF9008950E94B108813081F41F
S1131200F8948FEF9FEF909335058093340581E038
S113121080933B0510923E0510923D050E941E02EC
S1131220809100010895809131058F5F809331058D
S113123008950FB6F8940F9280913D0590913E0564
S11312400F900FBE08950F931F93CF93DF93809158
S11312503105811101C1C0913D05D0913E058E013A
S11312600F5F1F4F10933E0500933D0501151105B7
S1131270B9F480914B0590914C052091490530912A
S11312804A0530934C0520934B0590934A0580936F
S11312904905809137058F5F809337050E94CD06FD
S11312A080913405909135050817190720F480E0E2
S11312B0B8C081E001C080E0E0914B05F0914C059D
S11312C09081911107C02FEF3FEF309335052093A4
S11312D03405A7C0E0914B05F0914C050580F681DB
S11312E0E02D0680F781E02D228133810217130758
S11312F028F4309335052093340593C0A285B38533
S11313002481358146815781E9015D834C8326819F
S1131310378144815581E9015B834A8311962D917C
S11313203C911297AF014E5F5F4F2417350731F49C
S11313302681378112963C932E9311971386128639
S11313409C9191509C93A489B589109719F1268595
S1131350378560897189E9017D836C8320893189AE
S113136066857785E9017B836A8311966D917C910B
S113137012979F01245F3F4F6217730731F420894E
S1131380318912963C932E931197158A148A9C9155
S113139091509C93268990913C05921710F42093C8
S11313A03C0530E0D901AA0FBB1FAA0FBB1FAA0F2F
S11313B0BB1F2A0F3B1FD901A15ABA4F11960D909A
S11313C0BC91A02DB583A48314962D913C911597BF
S11313D03783268314962D913C911597E9015B83FD
S11313E04A8315965C934E931497A689B0E09D01A9
S11313F0220F331F220F331F220F331FA20FB31FDD
S1131400A15ABA4FB387A2879C919F5F9C93268968
S1131410E0918305F09184059689921708F449CFE9
S11314204BCFE0918305F0918405268930E0F901E2
S1131430EE0FFF1FEE0FFF1FEE0FFF1F2E0F3F1FBC
S1131440F901E15AFA4F9081923008F081E09091CD
S1131450380591110CC00CC08091390590913A0562
S1131460019690933A058093390580E001C081E0AC
S1131470DF91CF911F910F910895CF93DF930FB612
S1131480F8940F92809131058150809331058091B9
S113149031058111C3C080913F05811196C0C1C03F
S11314A0E0914505F09146050680F781E02DA48979
S11314B0B589C685D785808991899D838C83C089A8
S11314C0D189868597859B838A8311962D913C913A
S11314D01297CF010C962817390731F48089918926
S11314E012969C938E931197158A148A8C9181502D
S11314F08C93A285B385C481D581868197819D8390
S11315008C83C681D781848195819B838A8311963C
S11315108D919C9112979F012E5F3F4F82179307E5
S113152031F48681978112969C938E93119713863A
S113153012868C9181508C93868990913C059817E2
S113154010F480933C0590E0DC01AA0FBB1FAA0FA6
S1131550BB1FAA0FBB1F8A0F9B1FDC01A15ABA4FE6
S113156011960D90BC91A02DB583A48314968D91F2
S11315709C911597978386831496CD91DC9115974A
S11315803B832A8315963C932E931497A689B0E047
S1131590CD01880F991F880F991F880F991FA80FD5
S11315A0B91FA15ABA4FB387A2878C918F5F8C93CE
S11315B09689A0918305B091840556968C918917DC
S11315C030F481E08093380502C0E0E0F0E08091DF
S11315D04005811165CFEF2B11F00E94CD06C0911B
S11315E03905D0913A05209769F00E942309882390
S11315F019F081E0809338052197B9F710923A05E4
S11316001092390580913805882351F08091830523
S1131610909184050E944D0281E003C080E001C0E6
S113162080E00F900FBEDF91CF9108950F931F9329
S1131630CF93DF938C01EB010E94130940913D0588
S113164050913E05F80120813181C9018C0F9D1F05
S11316504217530740F48217930768F44817590751
S113166060F0C0E00FC08217930748F0481759078D
S113167040F0C0E007C0C0E005C0C1E003C0C1E065
S113168001C0C1E0F80191838083CC2329F060E09C
S1131690841B950B0E9453080E943D0A811102C0CD
S11316A00E944D028C2FDF91CF911F910F910895CD
S11316B0CF93DF93EC01892B49F00E94130960E07A
S11316C0CE010E9453080E943D0A01C080E08111AE
S11316D002C00E944D02DF91CF910895809131059F
S11316E0882321F081E0809338050895109238050D
S11316F0E0918305F09184050788F08DE02D8081C9
S11317009181A281B381853A954AA54AB54AD9F413
S113171084819581A681B781853A954AA54AB54ABF
S113172091F480859185A285B385853A954AA54A29
S1131730B54A49F484859585A685B785853A954A41
S1131740A54AB54A61F06091830570918405675E8E
S11317507F4F80918305909184050E94D70D20913D
S11317603C0501C02150822F90E0FC01EE0FFF1FC9
S1131770EE0FFF1FEE0FFF1FE80FF91FE15AFA4F9C
S11317803081332379F3AC01440F551F440F551FA7
S1131790440F551F480F591FFA01E15AFA4FA1810E
S11317A0B28112966D917C911397728361834E5925
S11317B05A4F6417750779F4FC01EE0FFF1FEE0F03
S11317C0FF1FEE0FFF1FE80FF91FE15AFA4F458183
S11317D0568152834183FC01EE0FFF1FEE0FFF1F62
S11317E0EE0FFF1F8E0F9F1FFC01E15AFA4F01807D
S11317F0F281E02D868197819093840580938305FF
S113180020933C0580918305909184050895CF939E
S1131810DF93EB016091830570918405645F7F4FD2
S11318200E944D0161E0CE010E945308DF91CF91E7
S11318300895CF93DF93DC011596ED91FC911697F3
S11318400680F781E02DA489B589C685D78580896E
S113185091899D838C83C089D189868597859B8353
S11318608A8311968D919C9112979F01245F3F4F1B
S11318708217930731F48089918912969C938E93F1
S11318801197158A148A8C9181508C93809131051B
S1131890811160C0A285B385C481D5818681978179
S11318A09D838C83C681D781848195819B838A8320
S11318B011968D919C9112979F012E5F3F4F821735
S11318C0930731F48681978112969C938E93119796
S11318D0138612868C9181508C93868990913C0555
S11318E0981710F480933C0590E0DC01AA0FBB1F0D
S11318F0AA0FBB1FAA0FBB1F8A0F9B1FDC01A15A93
S1131900BA4F11960D90BC91A02DB583A483149663
S11319108D919C911597978386831496CD91DC9134
S113192015973B832A8315963C932E931497A68987
S1131930B0E0CD01880F991F880F991F880F991F58
S1131940A80FB91FA15ABA4FB387A2878C918F5F92
S11319508C931CC040E455E0DA011196CD91DC91E2
S11319601297D787C6878C819D81918B808B8C81C0
S11319709D81DC0113963C932E9312973D832C8317
S1131980558B448BDA018C918F5F8C939689E0910F
S11319908305F09184058689891720F481E080937A
S11319A0380501C080E0DF91CF910895209137057B
S11319B0FC01208320913D0530913E053283218333
S11319C00895CF93DF930FB6F8940F9240913D059D
S11319D050913E05EC0129813A81DA01A21BB30B37
S11319E0F881E0913705FE1741F04217530728F0BC
S11319F0FB011182108281E011C0EB012881398141
S1131A00A217B30740F42A1B3B0B398328830E9497
S1131A10D60C80E003C01982188281E00F900FBEBB
S1131A20DF91CF91089581E0809338050895CF9395
S1131A30DF9300D000D0CDB7DEB70E94EE006983FB
S1131A407A838B839C8320E030E0A9010E941D0EE1
S1131A50882364F020E04FEF5FEFBE016F5F7F4F9C
S1131A6080918505909186050E94AC0584EF91E0F4
S1131A700E94580BE2CFCF93DF9300D000D0CDB7B4
S1131A80DEB74FEF5FEFBE016F5F7F4F809185053B
S1131A90909186050E943E06882399F3C980DA80D6
S1131AA0EB80FC8020E030E04CE052E4C701B6015A
S1131AB00E941D0E181624F484EB0E948F00E1CFBF
S1131AC020E030E040EF51E4C701B6010E941D0E52
S1131AD0181624F48AE50E948F00D3CF80E00E9478
S1131AE08F00CFCFCF93DF9300D000D0CDB7DEB738
S1131AF04FEF5FEFBE016F5F7F4F8091850590913F
S1131B0086050E943E06882399F3C980DA80EB801B
S1131B10FC8020E030E048E452E4C701B6010E94B2
S1131B201D0E181664F020E030E040E252E4C701D4
S1131B30B6010E941D0E181624F481E003C082E051
S1131B4001C080E00E945A00D3CF0E9499000E94F5
S1131B5084000E94530040E064E085E00E946B052D
S1131B609093860580938505E12CF12C03E020E019
S1131B7030E040E866E071E087E19DE00E94A10862
S1131B8002E020E030E040E86DE071E08BE39DE0AE
S1131B900E94A10801E020E030E040E862E171E049
S1131BA082E79DE00E94A1080E94FC08FFCF88E024
S1131BB088B988B1816088B9FFCF8CE088B9FFCF3C
S1131BC0E89409C097FB3EF49095809570956195D3
S1131BD07F4F8F4F9F4F9923A9F0F92F96E9BB2789
S1131BE09395F695879577956795B795F111F8CF05
S1131BF0FAF4BB0F11F460FF1BC06F5F7F4F8F4F70
S1131C009F4F16C0882311F096E911C0772321F065
S1131C109EE8872F762F05C0662371F096E8862FFD
S1131C2070E060E02AF09A95660F771F881FDAF754
S1131C30880F9695879597F908950E948F0E08F45A
S1131C408FEF08950E94350E0C94CA0E0E94BC0EAC
S1131C5038F00E94C30E20F0952311F00C94B30EBB
S1131C600C94B90E11240C94FE0E0E94DB0E70F33A
S1131C70959FC1F3950F50E0551F629FF001729F2D
S1131C80BB27F00DB11D639FAA27F00DB11DAA1F3C
S1131C90649F6627B00DA11D661F829F2227B00D89
S1131CA0A11D621F739FB00DA11D621F839FA00D14
S1131CB0611D221F749F3327A00D611D231F849F64
S1131CC0600D211D822F762F6A2F11249F575040BB
S1131CD09AF0F1F088234AF0EE0FFF1FBB1F661F36
S1131CE0771F881F91505040A9F79E3F510580F0FF
S1131CF00C94B30E0C94FE0E5F3FE4F3983ED4F3C1
S1131D00869577956795B795F795E7959F5FC1F7A2
S1131D10FE2B880F911D9695879597F90895990F35
S1131D200008550FAA0BE0E8FEEF16161706E807A1
S1131D30F907C0F012161306E407F50798F0621BC2
S1131D40730B840B950B39F40A2661F0232B242B97
S1131D50252B21F408950A2609F4A140A6958FEFB6
S1131D60811D811D089597F99F6780E870E060E008
S1131D7008959FEF80EC089500240A941616170620
S1131D8018060906089500240A9412161306140668
S1131D9005060895092E0394000C11F4882352F0CB
S1131DA0BB0F40F4BF2B11F460FF04C06F5F7F4F83
S1131DB08F4F9F4F089557FD9058440F551F59F06A
S1131DC05F3F71F04795880F97FB991F61F09F3F24
S1131DD079F087950895121613061406551FF2CF4D
S1131DE04695F1DF08C0161617061806991FF1CF9D
S1131DF086957105610508940895E894BB276627C4
S1131E007727CB0197F90895AA1BBB1B51E107C0A3
S1131E10AA1FBB1FA617B70710F0A61BB70B881F76
S1131E20991F5A95A9F780959095BC01CD01089505
S1131E30FB01DC0102C001900D9241505040D8F7E3
S1131E400895DC0101C06D9341505040E0F70895BE
S1071E50F894FFCF30
S1131E540349444C450053656E736F720050756DAD
S10B1E647000416C61726D0015
S9030000FC
